:100000000C9434000C943E000C943E000C943E0082
:100010000C943E000C943E000C943E000C943E0068
:100020000C943E000C943E000C943E000C943E0058
:100030000C943E000C943E000C943E000C943E0048
:100040000C943E000C943E000C943E000C943E0038
:100050000C943E000C943E000C943E000C943E0028
:100060000C943E000C943E0011241FBECFEFD4E050
:10007000DEBFCDBF0E9401010C9444020C9400002D
:1000800018B817B88FE480937C0086EC80937A00D0
:1000900080917A0086FDFCCF089590917C008F704E
:1000A000907F892B80937C0080917A00806480937C
:1000B0007A0080917A0086FDFCCF209178004091F3
:1000C0007900942F80E030E0282B392BC901089566
:1000D0001092C50083E08093C40086E08093C20044
:1000E00088E18093C1000895982F8091C00085FF1A
:1000F000FCCF9093C6000895FC018091C00087FD5D
:1001000002C080E008958091C600808381E0089558
:10011000AC0120E030E00CC0FA01E20FF31FE081F7
:100120008091C00085FFFCCFE093C6002F5F3F4F5A
:10013000261737078CF3089584B1876084B98AB194
:100140008C6F8AB90895843069F1853050F481301C
:10015000B9F0813078F08230C9F0833009F03FC0C7
:100160001BC0863059F1863018F1873069F188302C
:10017000B1F530C0662311F02A9A08952A9808959F
:10018000662311F0299A089529980895662311F09D
:10019000289A089528980895662311F05F9A089583
:1001A0005F980895662311F05E9A08955E98089509
:1001B000662311F05D9A08955D980895662311F005
:1001C0005C9A08955C980895662311F05B9A0895EF
:1001D0005B980895662311F05A9A08955A980895E5
:1001E000E1E8F0E0808183608083089520918400BD
:1001F00030918500C9010895109285001092840005
:1002000008952F923F924F925F926F927F928F92BA
:100210009F92AF92BF92CF92DF92EF92FF920F9395
:100220001F93DF93CF93CDB7DEB7A4970FB6F894A3
:10023000DEBF0FBECDBF1092C50083E08093C40027
:1002400086E08093C20088E18093C1000E94400054
:1002500084B1876084B98AB18C6F8AB9809181003A
:100260008360809381001092850010928400AA24FC
:10027000BB2400E03E010894611C711C3DE0832E0C
:10028000912C8C0E9D1E25E2422E512C4C0E5D1E93
:100290009DE0392E8AE0282E02C00B2DB12E8091D0
:1002A00084009091850080509D4208F495C06301C0
:1002B000730110E0812F0E944D00D7018D939D9313
:1002C0007D011F5F1630B1F7F4017401D6012D9145
:1002D0003C91C90168EE73E00E943002D701139689
:1002E0006C93C90168EE73E00E9430029C0164E6E1
:1002F00070E00E943002D70112966C93C90164E647
:1003000070E00E9430029C016AE070E00E943002BE
:10031000D70111966C93C9016AE070E00E94300227
:10032000D6018C9311969C93D7018C9382E090E038
:10033000C80ED91EA4E0B0E0EA0EFB1EC814D90412
:1003400029F68091C00085FFFCCFB4E2B093C600CF
:1003500093818091C00085FFFCCF905D9093C60093
:1003600092818091C00085FFFCCF905D9093C60084
:1003700091818091C00085FFFCCF905D9093C60075
:1003800090818091C00085FFFCCF905D9093C60066
:100390008091C00085FFFCCF29E02093C6003496F1
:1003A000E415F505A9F68091C00085FFFCCF3092D9
:1003B000C6008091C00085FFFCCF2092C60010923D
:1003C00085001092840080E0AA2009F481E0A82E24
:1003D00080E06A2D0E94A3008091C00087FF5FCF5C
:1003E0001091C6008DE3B81609F057CF0C3621F1F5
:1003F0000D3638F40736A1F00836B1F0023669F54B
:1004000017C00237E9F0033718F40E3631F520C073
:100410000337D1F0083709F5612F605381E01BC025
:10042000612F605382E017C0612F605383E013C0D7
:10043000612F605384E00FC0612F605385E00BC0D3
:10044000612F605386E007C0612F605387E003C0CF
:10045000612F605388E00E94A300B12E0DE31FCFEF
:10046000AA1BBB1B51E107C0AA1FBB1FA617B707DA
:1004700010F0A61BB70B881F991F5A95A9F78095F6
:0C0480009095BC01CD010895F894FFCFC9
:00000001FF
