:100000000C9434000C9446000C9446000C9446006A
:100010000C9446000C9446000C9446000C94460048
:100020000C9446000C9446000C9446000C94460038
:100030000C9446000C9446000C9446000C94460028
:100040000C943C010C9446000C9446000C94460021
:100050000C9446000C9446000C9446000C94460008
:100060000C9446000C94460011241FBECFEFD4E040
:10007000DEBFCDBF11E0A0E0B1E001C01D92A43011
:10008000B107E1F70E9468010C9424040C9400006D
:100090001092C50083E08093C40086E08093C20084
:1000A00088E18093C1000895982F8091C00085FF5A
:1000B000FCCF9093C6000895FC018091C00087FD9D
:1000C00002C080E008958091C600808381E0089599
:1000D000AC0120E030E00CC0FA01E20FF31FE08138
:1000E0008091C00085FFFCCFE093C6002F5F3F4F9B
:1000F000261737078CF3089584B1886184B98AB1D3
:100100008C6F8AB90895833071F1843028F481307E
:10011000F1F0823010F515C0853089F1853048F155
:10012000863019F0873081F506C0662311F02C9ACD
:1001300008952C980895662311F02B9A08952B9812
:100140000895662311F05F9A08955F9808956623D5
:1001500011F05E9A08955E980895662311F05D9AF5
:1001600008955D980895662311F05C9A08955C984F
:100170000895662311F05B9A08955B9808956623AD
:1001800011F05A9A08955A98089587B1807C87B9DA
:1001900087B1887F87B90895843029F1853048F484
:1001A0008130B1F0813078F08230B1F0833049F4A1
:1001B00018C08630F1F08630D0F08730E1F088301A
:1001C000F9F080E0089586B182958695877015C014
:1001D00086B182958F7011C086B186958695869579
:1001E0000CC083B101C086B18695869506C086B1E4
:1001F00003C086B102C083B1869580958170089551
:1002000083B1809581700895E1E8F0E0808183609A
:10021000808308952091840030918500C90108955C
:100220001092850010928400089585B5856085BD83
:1002300008958091000190910101892B61F481E082
:1002400090E0909301018093000116BC80916E00B4
:10025000816080936E00089580910001909101016A
:10026000892B49F080916E008E7F80936E001092F2
:1002700001011092000108951F920F920FB60F9284
:1002800011248F939F938091020190910301019615
:10029000909303018093020140979CF01092030118
:1002A000109202018091000190910101892B49F087
:1002B00080916E008E7F80936E00109201011092EB
:1002C00000019F918F910F900FBE0F901F90189576
:1002D0002F923F924F925F926F927F928F929F9256
:1002E000AF92BF92CF92DF92EF92FF920F931F9344
:1002F000DF93CF93CDB7DEB72F970FB6F894DEBF5D
:100300000FBECDBF1092C50083E08093C40086E08D
:100310008093C20088E18093C10084B1886184B970
:100320008AB18C6F8AB987B1807C87B987B1887FA1
:1003300087B98091810083608093810085B5856055
:1003400085BD789410928500109284001D86CC247F
:10035000AA241C861B861A861986DD24EE241C829C
:1003600010E01B82FF241A8200E0198234E2232E5F
:100370002DE3322E9DE0492E8AE0582E80E00E9427
:10038000CC00682E81E00E94CC008D8382E00E9428
:10039000CC00782E83E00E94CC008E8384E00E9403
:1003A000CC00882E85E00E94CC008F8386E00E94DE
:1003B000CC00982E87E00E94CC00888788E00E94BD
:1003C000CC00B82E809184009091850084369105F0
:1003D00018F421E02D870EC0809184009091850053
:1003E000895E934010F41D8605C0A3941092850089
:1003F00010928400F2E3FA1530F480E0CC2009F486
:1004000081E0C82EAA2484E00E94CC008F8780E07F
:100410000E94CC008E871123B9F12F812223A1F5F0
:100420008091000190910101892B71F510E08C857C
:10043000882309F411E01C870E9419018091C000F3
:1004400085FFFCCF2092C6008091C00085FFFCCFC5
:10045000E8E6E093C6008091C00085FFFCCF3092B3
:10046000C6008091C00085FFFCCF105D1093C600D0
:100470008091C00085FFFCCF4092C6008091C000F3
:1004800085FFFCCF5092C6000023D1F1FD81FF23F0
:10049000B9F58091000190910101892B89F510E057
:1004A0002985222309F411E019870E9419018091FE
:1004B000C00085FFFCCF2092C6008091C00085FF60
:1004C000FCCF8AE78093C6008091C00085FFFCCFF7
:1004D0003092C6008091C00085FFFCCF105D109364
:1004E000C6008091C00085FFFCCF4092C60080917D
:1004F000C00085FFFCCF5092C600CC24C394AA2430
:10050000FF20D1F1EE81EE23B9F5809100019091A9
:100510000101892B89F510E0FA85FF2309F411E028
:100520001A870E9419018091C00085FFFCCF20929C
:10053000C6008091C00085FFFCCF2CE62093C6004A
:100540008091C00085FFFCCF3092C6008091C00032
:1005500085FFFCCF105D1093C6008091C00085FF21
:10056000FCCF4092C6008091C00085FFFCCF509226
:10057000C600CC24C394AA24EE20D1F18885882318
:10058000B9F58091000190910101892B89F510E066
:10059000EB85EE2309F411E01B870E94190180917D
:1005A000C00085FFFCCF2092C6008091C00085FF6F
:1005B000FCCFF2E7F093C6008091C00085FFFCCF2E
:1005C0003092C6008091C00085FFFCCF105D109373
:1005D000C6008091C00085FFFCCF4092C60080918C
:1005E000C00085FFFCCF5092C600CC24C394AA243F
:1005F000DB1449F18091C00085FFFCCF2092C6003A
:100600008091C00085FFFCCF2BE62093C60080912F
:10061000C00085FFFCCF3092C6008091C00085FFEE
:10062000FCCF80E3B80EB092C600E0EDBE0E809124
:10063000C00085FFFCCF4092C6008091C00085FFBE
:10064000FCCF5092C600FB81F81549F18091C000A3
:1006500085FFFCCF2092C6008091C00085FFFCCFB3
:1006600023E72093C6008091C00085FFFCCF309225
:10067000C6008091C00085FFFCCF80E3880E809289
:10068000C600E0ED8E0E8091C00085FFFCCF409249
:10069000C6008091C00085FFFCCF5092C600F98152
:1006A000F61549F18091C00085FFFCCF2092C6006D
:1006B0008091C00085FFFCCF2EE62093C60080917C
:1006C000C00085FFFCCF3092C6008091C00085FF3E
:1006D000FCCF80E3680E6092C600E0ED6E0E809164
:1006E000C00085FFFCCF4092C6008091C00085FF0E
:1006F000FCCF5092C600FA81F71549F18091C000F5
:1007000085FFFCCF2092C6008091C00085FFFCCF02
:1007100021E62093C6008091C00085FFFCCF309277
:10072000C6008091C00085FFFCCF80E3780E7092F8
:10073000C600E0ED7E0E8091C00085FFFCCF4092A8
:10074000C6008091C00085FFFCCF5092C600FC819E
:10075000F91549F18091C00085FFFCCF2092C600B9
:100760008091C00085FFFCCF22E62093C6008091D7
:10077000C00085FFFCCF3092C6008091C00085FF8D
:10078000FCCF80E3980E9092C600E0ED9E0E809123
:10079000C00085FFFCCF4092C6008091C00085FF5D
:1007A000FCCF5092C600FC85FF2321F4DB2CEE2405
:1007B00060E00BC0BB2029F0EE24E394DD24D39449
:1007C00003C0DD84EE24E39461E02985222321F037
:1007D0001C2D0C2DFC2C0EC08A85882319F4FB2CB3
:1007E00000E002C00C2DFC2CEB85EE2311F410E090
:1007F00002C01C2DEC2C80E00E94830081E06D2D56
:100800000E94830082E0602F0E94830083E0612FBA
:100810000E94830084E06F2D0E94830085E06E2D8E
:100820000E94830086E06F850E94830087E06E85CA
:100830000E948300DB2CE8849C821F818B82FE80D7
:0C0840007A820D8169829ACDF894FFCF76
:00000001FF
