:100000000C9434000C9446000C9446000C9446006A
:100010000C9446000C9446000C9446000C94460048
:100020000C9446000C9446000C9446000C94460038
:100030000C9446000C9446000C9446000C94460028
:100040000C9436010C9446000C9446000C94460027
:100050000C9446000C9446000C9446000C94460008
:100060000C9446000C94460011241FBECFEFD4E040
:10007000DEBFCDBF11E0A0E0B1E001C01D92A6300F
:10008000B107E1F70E9462010C942D040C9400006A
:100090001092C50083E08093C40086E08093C20084
:1000A00088E18093C1000895982F8091C00085FF5A
:1000B000FCCF9093C6000895FC018091C00087FD9D
:1000C00002C080E008958091C600808381E0089599
:1000D000AC0120E030E00CC0FA01E20FF31FE08138
:1000E0008091C00085FFFCCFE093C6002F5F3F4F9B
:1000F000261737078CF3089588E184B917B88CEF79
:100100008AB90895833089F0843028F4813089F0E9
:10011000823088F40CC0853081F0853080F08630E4
:1001200021F0873061F090E00BC090E109C090E8C9
:1001300007C090E405C090E203C094E001C098E0DD
:100140008650662351F0823020F480910501892B7E
:100150000AC080910401892B0DC09095823038F43B
:100160008091050189238093050185B908958091C7
:1001700004018923809304018BB908958430D1F060
:10018000853048F4813081F0813090F1823081F007
:10019000833091F40BC0863069F1863068F1873086
:1001A00059F1883049F426C020E11BC024E00DC07D
:1001B00028E017C024E015C0833011F420E005C00A
:1001C00020E0873011F0883011F493B10BC08330F8
:1001D00040F0843031F0853021F0863011F091E02C
:1001E00002C096B1922380E0992309F481E008953A
:1001F00020E2E7CF21E0E5CF22E0E3CFE1E8F0E045
:1002000080818360808308952091840030918500EF
:10021000C90108951092850010928400089585B553
:10022000856085BD08958091000190910101892B21
:1002300061F481E090E0909301018093000116BC8D
:1002400080916E00816080936E000895809100011E
:1002500090910101892B49F080916E008E7F8093EF
:100260006E00109201011092000108951F920F92EA
:100270000FB60F9211248F939F938091020190915A
:1002800003010196909303018093020140979CF033
:1002900010920301109202018091000190910101DE
:1002A000892B49F080916E008E7F80936E001092B2
:1002B0000101109200019F918F910F900FBE0F903E
:1002C0001F9018952F923F924F925F926F927F925C
:1002D0008F929F92AF92BF92CF92DF92EF92FF9256
:1002E0000F931F93DF93CF93CDB7DEB72F970FB642
:1002F000F894DEBF0FBECDBF98E194B917B88CEF6C
:100300008AB91092C50083E08093C40086E0809390
:10031000C2009093C100809181008360809381002E
:1003200085B5856085BD7894109285001092840013
:100330001D86CC2499241C861B861A8619861C824D
:100340001B821A8210E0EE24DD241982FF2400E0D3
:1003500034E2232E2DE3322E9DE0492E8AE0582EE2
:1003600080E00E94BE00882E81E00E94BE008D8346
:1003700082E00E94BE00682E83E00E94BE008E8351
:1003800084E00E94BE00A82E85E00E94BE008F83FC
:1003900086E00E94BE00782E87E00E94BE0088871B
:1003A00088E00E94BE00B82E809184009091850064
:1003B0008436910518F421E02D870EC080918400C9
:1003C00090918500895E934010F41D8605C093943A
:1003D0001092850010928400F2E3F91530F480E069
:1003E000CC2009F481E0C82E992484E00E94BE004C
:1003F0008F8780E00E94BE008E871123B9F12F8184
:100400002223A1F58091000190910101892B71F5C2
:1004100010E08C85882309F411E01C870E941301E9
:100420008091C00085FFFCCF2092C6008091C00063
:1004300085FFFCCFE8E6E093C6008091C00085FF11
:10044000FCCF3092C6008091C00085FFFCCF105DCC
:100450001093C6008091C00085FFFCCF4092C6007B
:100460008091C00085FFFCCF5092C600FF20D1F1E3
:10047000FD81FF23B9F58091000190910101892B45
:1004800089F510E02985222309F411E019870E94DB
:1004900013018091C00085FFFCCF2092C60080919F
:1004A000C00085FFFCCF8AE78093C6008091C00022
:1004B00085FFFCCF3092C6008091C00085FFFCCF45
:1004C000105D1093C6008091C00085FFFCCF409264
:1004D000C6008091C00085FFFCCF5092C600CC249E
:1004E000C3949924DD20D1F1EE81EE23B9F58091FA
:1004F000000190910101892B89F510E0FA85FF2315
:1005000009F411E01A870E9413018091C00085FF51
:10051000FCCF2092C6008091C00085FFFCCF2CE666
:100520002093C6008091C00085FFFCCF3092C600AA
:100530008091C00085FFFCCF105D1093C6008091B4
:10054000C00085FFFCCF4092C6008091C00085FFAF
:10055000FCCF5092C600CC24C39499248B8188236D
:10056000D1F1E885EE23B9F5809100019091010168
:10057000892B89F510E0FB85FF2309F411E01B8727
:100580000E9413018091C00085FFFCCF2092C6001D
:100590008091C00085FFFCCF22E72093C6008091A8
:1005A000C00085FFFCCF3092C6008091C00085FF5F
:1005B000FCCF105D1093C6008091C00085FFFCCF7A
:1005C0004092C6008091C00085FFFCCF5092C600CB
:1005D000CC24C39499248C818B1549F18091C0005F
:1005E00085FFFCCF2092C6008091C00085FFFCCF24
:1005F000EBE6E093C6008091C00085FFFCCF30920F
:10060000C6008091C00085FFFCCFF0E3BF0EB09222
:10061000C60020EDB20E8091C00085FFFCCF409255
:10062000C6008091C00085FFFCCF5092C600EA143E
:1006300049F18091C00085FFFCCF2092C6008091D7
:10064000C00085FFFCCF83E78093C6008091C00087
:1006500085FFFCCF3092C6008091C00085FFFCCFA3
:10066000E0E3AE0EA092C600F0EDAF0E8091C000A8
:1006700085FFFCCF4092C6008091C00085FFFCCF73
:100680005092C600081549F18091C00085FFFCCF4B
:100690002092C6008091C00085FFFCCF2EE62093FB
:1006A000C6008091C00085FFFCCF3092C6008091CB
:1006B000C00085FFFCCF80E3880E8092C600E0ED8D
:1006C0008E0E8091C00085FFFCCF4092C6008091C5
:1006D000C00085FFFCCF5092C600EE2011F0AA208A
:1006E00021F0002321F0882011F40E941301F981E8
:1006F000F61579F18091000190910101892B49F55E
:100700008091C00085FFFCCF2092C6008091C00080
:1007100085FFFCCF21E62093C6008091C00085FFB5
:10072000FCCF3092C6008091C00085FFFCCF80E3F3
:10073000680E6092C600E0ED6E0E8091C00085FFED
:10074000FCCF4092C6008091C00085FFFCCF509244
:10075000C600FA81F71579F18091000190910101AD
:10076000892B49F58091C00085FFFCCF2092C600FF
:100770008091C00085FFFCCF22E62093C6008091C7
:10078000C00085FFFCCF3092C6008091C00085FF7D
:10079000FCCF80E3780E7092C600E0ED7E0E809173
:1007A000C00085FFFCCF4092C6008091C00085FF4D
:1007B000FCCF5092C600FC85FF2321F4DB2CEE24F5
:1007C00060E00BC0BB2029F0EE24E394DD24D39439
:1007D00003C0DD84EE24E39461E02985222321F027
:1007E0001C2D0C2DFC2C0EC08A85882319F4FB2CA3
:1007F00000E002C00C2DFC2CEB85EE2311F410E080
:1008000002C01C2DEC2C80E00E94820081E06D2D46
:100810000E94820082E0602F0E94820083E0612FAC
:100820000E94820084E06F2D0E94820085E06E2D80
:100830000E94820086E06F850E94820087E06E85BC
:100840000E948200BC82F885FB837A821F81EA2C99
:0E085000DE806982FD80082D83CDF894FFCFF5
:00000001FF
